:020000040800F2
:100000000000022029200008051F0008071F000823
:10001000091F00080B1F00080D1F0008000000004A
:100020000000000000000000000000000F1F00089A
:10003000111F000800000000131F0008151F000812
:10004000792000087920000879200008792000082C
:10005000792000087920000879200008792000081C
:10006000792000087920000879200008792000080C
:1000700079200008792000087920000879200008FC
:10008000792000087920000879200008000000008D
:1000900000000000000000000000000079200008BF
:1000A00079200008792000087920000879200008CC
:1000B00079200008792000087920000879200008BC
:1000C00079200008792000087920000879200008AC
:1000D000792000087920000879200008000000003D
:1000E0001D1F00087920000879200008000000008A
:1000F000000000000000000000000000792000085F
:10010000000000007920000879200008792000080C
:1001100000000000000000000000000000000000DF
:10012000792000087920000879200008792000084B
:10013000792000080000000000000000000000001E
:10014000000000000000000000000000792000080E
:10015000792000087920000879200008792000081B
:10016000792000087920000800000000000000004D
:10017000000000000000000000000000000000007F
:1001800000000000792000080000000000000000CE
:08019000792000087920000825
:1001A00010B5054C237833B9044B13B10448AFF3B1
:1001B00000800123237010BDE0010020000000003A
:1001C0004865000808B5034B1BB103490348AFF36A
:1001D000008008BD00000000E40100204865000820
:1001E000ABBE01E000207047002A00D01060012063
:1001F0007047000053B94AB9002908BF00281CBF46
:100200004FF0FF314FF0FF3000F072B9ADF1080C44
:100210006DE904CE00F006F8DDF804E0DDE9022324
:1002200004B070472DE9F047089E04468846002B2D
:100230004BD18A42154667D9B2FA82F24AB1C2F16D
:10024000200701FA02F320FA07F7954047EA03086E
:1002500094404FEA154E230CB8FBFEF71FFA85FCBD
:100260000EFB178843EA084307FB0CF1994209D9B2
:10027000EB1807F1FF3080F01B81994240F21881A2
:10028000023F2B445B1AA4B2B3FBFEF00EFB10330B
:1002900044EA034400FB0CFCA44509D92C1900F1E5
:1002A000FF3380F00781A44540F2048102382C44DA
:1002B00040EA0740A4EB0C0400271EB1D440002301
:1002C000C6E900433946BDE8F0878B4209D9002EC4
:1002D00000F0EB800027C6E9000138463946BDE84A
:1002E000F087B3FA83F7002F47D18B4202D38242C3
:1002F00000F2FA80841A61EB030301209846002E75
:10030000E0D0C6E90048DDE702B9FFDEB2FA82F2CA
:10031000002A40F08F80491B4FEA154E1FFA85F8DE
:100320000127B1FBFEFC230C0EFB1C1143EA014329
:1003300008FB0CF1994207D9EB180CF1FF3002D2FF
:10034000994200F2CD808446591AA3B2B1FBFEF067
:100350000EFB101443EA044408FB00F8A04507D93B
:100360002C1900F1FF3302D2A04500F2B6801846E6
:10037000A4EB080440EA0C409FE7C7F1200CBB4007
:1003800022FA0CFE4EEA030E01FA07F420FA0CF5ED
:1003900021FA0CF34FEA1E482543B3FBF8F92C0C65
:1003A00008FB19331FFA8EFA44EA034309FB0AF4E7
:1003B0009C4202FA07F200FA07F10BD91EEB030385
:1003C00009F1FF3080F087809C4240F28480A9F1DF
:1003D000020973441B1BADB2B3FBF8F008FB1033EA
:1003E00045EA034400FB0AFAA24508D91EEB0404BF
:1003F00000F1FF336BD2A24569D90238744440EA58
:100400000940A0FB0289A4EB0A044C45C2464B46B6
:1004100054D351D0002E69D0B1EB0A0564EB03042C
:1004200004FA0CFCFD40FC404CEA0505C6E900540A
:10043000002747E7C2F1200320FA03F7954001FAAD
:1004400002F021FA03F34FEA154E3843010CB3FBD7
:10045000FEF71FFA85F80EFB173341EA034107FB4D
:1004600008F38B4204FA02F407D9691807F1FF3C3C
:100470002FD28B422DD9023F2944CB1A81B2B3FB34
:10048000FEF00EFB103341EA034100FB08F38B4200
:1004900007D9691800F1FF3C17D28B4215D90238F1
:1004A0002944C91A40EA07473BE73746304609E77F
:1004B0000746E7E61846FBE64145ABD2B8EB020A31
:1004C00069EB0E0201381346A4E76046E9E71846D7
:1004D00095E76746D1E781467CE702382C4447E739
:1004E000ACF1020C2B442FE7384608E73746E9E623
:1004F000704700BF034613F8012B002AFBD1181ADE
:1005000001387047000000000000000000000000FB
:1005100001F0FF01102A2BDB10F0070F08D010F8B4
:10052000013B013A8B422DD010F0070F42B3F6D1B8
:10053000F0B441EA012141EA014122F007047FF0D1
:1005400000070023F0E80256083C85EA010586EA28
:10055000010685FA47F5A3FA87F586FA47F6A5FA64
:1005600087F68EB9EED1F0BC01F0FF0102F0070270
:1005700032B110F8013B013A83EA010313B1F8D11B
:100580000020704701387047002D06BF35460338FC
:10059000073815F0010F07D1013015F4807F02BF35
:1005A000013015F4C03F0130F0BC0138704700BF86
:1005B00081F0004102E000BF83F0004330B54FEA14
:1005C00041044FEA430594EA050F08BF90EA020F81
:1005D0001FBF54EA000C55EA020C7FEA645C7FEA14
:1005E000655C00F0E2804FEA5454D4EB5555B8BF37
:1005F0006D420CDD2C4480EA020281EA030382EAA8
:10060000000083EA010180EA020281EA0303362D39
:1006100088BF30BD11F0004F4FEA01314FF4801C0C
:100620004CEA113102D0404261EB410113F0004F1E
:100630004FEA03334CEA133302D0524263EB4303D5
:1006400094EA050F00F0A780A4F10104D5F1200E73
:100650000DDB02FA0EFC22FA05F2801841F10001CE
:1006600003FA0EF2801843FA05F359410EE0A5F1A2
:1006700020050EF1200E012A03FA0EFC28BF4CF0D3
:10068000020C43FA05F3C01851EBE37101F0004589
:1006900007D54FF0000EDCF1000C7EEB00006EEB96
:1006A0000101B1F5801F1BD3B1F5001F0CD3490820
:1006B0005FEA30004FEA3C0C04F101044FEA445277
:1006C00012F5800F80F09A80BCF1004F08BF5FEAFE
:1006D000500C50F1000041EB045141EA050130BDDE
:1006E0005FEA4C0C404141EB010111F4801FA4F181
:1006F0000104E9D191F0000F04BF01460020B1FAD6
:1007000081F308BF2033A3F10B03B3F120020CDA0D
:100710000C3208DD02F1140CC2F10C0201FA0CF0EB
:1007200021FA02F10CE002F11402D8BFC2F1200C50
:1007300001FA02F120FA0CFCDCBF41EA0C01904006
:10074000E41AA2BF01EB0451294330BD6FEA04044F
:100750001F3C1CDA0C340EDC04F11404C4F120023A
:1007600020FA04F001FA02F340EA030021FA04F34C
:1007700045EA030130BDC4F10C04C4F1200220FAA3
:1007800002F001FA04F340EA0300294630BD21FAE1
:1007900004F0294630BD94F0000F83F4801306BFA7
:1007A00081F480110134013D4EE77FEA645C18BF9B
:1007B0007FEA655C29D094EA050F08BF90EA020F32
:1007C00005D054EA000C04BF1946104630BD91EA2A
:1007D000030F1EBF0021002030BD5FEA545C05D12D
:1007E0004000494128BF41F0004130BD14F580046C
:1007F0003CBF01F5801130BD01F0004545F0FE41E0
:1008000041F470014FF0000030BD7FEA645C1ABF14
:10081000194610467FEA655C1CBF0B46024650EA4B
:10082000013406BF52EA033591EA030F41F4002177
:1008300030BD00BF90F0000F04BF0021704730B5FD
:100840004FF4806404F132044FF000054FF00001D2
:1008500050E700BF90F0000F04BF0021704730B593
:100860004FF4806404F1320410F0004548BF404268
:100870004FF000013EE700BF42004FEAE2014FEABD
:1008800031014FEA02701FBF12F07F4393F07F4F98
:1008900081F06051704732F07F4208BF704793F09B
:1008A0007F4F04BF41F40021704730B54FF46074AE
:1008B00001F0004521F000411CE700BF50EA0102B1
:1008C00008BF704730B54FF000050AE050EA01025A
:1008D00008BF704730B511F0004502D5404261EBCA
:1008E00041014FF4806404F132045FEA915C3FF40B
:1008F000D8AE4FF003025FEADC0C18BF03325FEAA8
:10090000DC0C18BF033202EBDC02C2F1200300FA58
:1009100003FC20FA02F001FA03FE40EA0E0021FA7D
:1009200002F11444BDE600BF70B54FF0FF0C4CF46B
:10093000E06C1CEA11541DBF1CEA135594EA0C0F1D
:1009400095EA0C0F00F0DEF82C4481EA030621EA58
:100950004C5123EA4C5350EA013518BF52EA033593
:1009600041F4801143F4801338D0A0FB02CE4FF045
:100970000005E1FB02E506F00042E0FB03E54FF075
:100980000006E1FB03569CF0000F18BF4EF0010E6D
:10099000A4F1FF04B6F5007F64F5407404D25FEA69
:1009A0004E0E6D4146EB060642EAC62141EA55511C
:1009B0004FEAC52040EA5E504FEACE2EB4F1FD0C5E
:1009C00088BFBCF5E06F1ED8BEF1004F08BF5FEADC
:1009D000500E50F1000041EB045170BD06F000468E
:1009E00046EA010140EA020081EA0301B4EB5C043B
:1009F000C2BFD4EB0C0541EA045170BD41F4801133
:100A00004FF0000E013C00F3AB8014F1360FDEBF57
:100A1000002001F0004170BDC4F10004203C35DA33
:100A20000C341BDC04F11404C4F1200500FA05F3B6
:100A300020FA04F001FA05F240EA020001F0004257
:100A400021F0004110EBD37021FA04F642EB0601CD
:100A50005EEA430E08BF20EAD37070BDC4F10C04F7
:100A6000C4F1200500FA04F320FA05F001FA04F2BB
:100A700040EA020001F0004110EBD37041F10001A7
:100A80005EEA430E08BF20EAD37070BDC4F12005B2
:100A900000FA05F24EEA020E20FA04F301FA05F21A
:100AA00043EA020321FA04F001F0004121FA04F2C2
:100AB00020EA020000EBD3705EEA430E08BF20EA92
:100AC000D37070BD94F0000F0FD101F000464000CC
:100AD00041EB010111F4801F08BF013CF7D041EA4E
:100AE000060195F0000F18BF704703F00046520052
:100AF00043EB030313F4801F08BF013DF7D043EA23
:100B00000603704794EA0C0F0CEA135518BF95EAD8
:100B10000C0F0CD050EA410618BF52EA4306D1D15F
:100B200081EA030101F000414FF0000070BD50EA7E
:100B3000410606BF1046194652EA430619D094EA08
:100B40000C0F02D150EA013613D195EA0C0F05D1F2
:100B500052EA03361CBF104619460AD181EA030146
:100B600001F0004141F0FE4141F470014FF00000FE
:100B700070BD41F0FE4141F4780170BD70B54FF099
:100B8000FF0C4CF4E06C1CEA11541DBF1CEA135519
:100B900094EA0C0F95EA0C0F00F0A7F8A4EB0504FB
:100BA00081EA030E52EA03354FEA013100F08880F2
:100BB0004FEA03334FF0805545EA131343EA1263BB
:100BC0004FEA022245EA111545EA10654FEA002670
:100BD0000EF000419D4208BF964244F1FD0404F529
:100BE000407402D25B084FEA3202B61A65EB030585
:100BF0005B084FEA32024FF480104FF4002CB6EB42
:100C0000020E75EB030E22BFB61A754640EA0C00C1
:100C10005B084FEA3202B6EB020E75EB030E22BF01
:100C2000B61A754640EA5C005B084FEA3202B6EB42
:100C3000020E75EB030E22BFB61A754640EA9C0001
:100C40005B084FEA3202B6EB020E75EB030E22BFD1
:100C5000B61A754640EADC0055EA060E18D04FEA8F
:100C6000051545EA16754FEA06164FEAC30343EA2F
:100C700052734FEAC2025FEA1C1CC0D111F4801FFC
:100C80000BD141EA00014FF000004FF0004CB6E7F5
:100C900011F4801F04BF01430020B4F1FD0C88BF94
:100CA000BCF5E06F3FF6AFAEB5EB030C04BFB6EB9F
:100CB000020C5FEA500C50F1000041EB045170BD92
:100CC0000EF0004E4EEA113114EB5C04C2BFD4EBBF
:100CD0000C0541EA045170BD41F480114FF0000E43
:100CE000013C90E645EA060E8DE60CEA135594EABF
:100CF0000C0F08BF95EA0C0F3FF43BAF94EA0C0FC2
:100D00000AD150EA01347FF434AF95EA0C0F7FF436
:100D100025AF104619462CE795EA0C0F06D152EA8A
:100D200003353FF4FDAE1046194622E750EA41066E
:100D300018BF52EA43067FF4C5AE50EA41047FF47F
:100D40000DAF52EA43057FF4EBAE12E74FF0FF3CE4
:100D500006E000BF4FF0010C02E000BF4FF0010CB5
:100D60004DF804CD4FEA410C7FEA6C5C4FEA430C2E
:100D700018BF7FEA6C5C1BD001B050EA410C0CBF7D
:100D800052EA430C91EA030F02BF90EA020F0020DF
:100D9000704710F1000F91EA030F58BF994208BF46
:100DA00090422CBFD8176FEAE37040F00100704703
:100DB0004FEA410C7FEA6C5C02D150EA013C07D15A
:100DC0004FEA430C7FEA6C5CD6D152EA033CD3D0A5
:100DD0005DF8040B704700BF8446104662468C469F
:100DE0001946634600E000BF01B5FFF7B7FF0028D2
:100DF00048BF10F1000F01BD4DF808EDFFF7F4FFFB
:100E00000CBF012000205DF808FB00BF4DF808ED85
:100E1000FFF7EAFF34BF012000205DF808FB00BFA8
:100E20004DF808EDFFF7E0FF94BF012000205DF8CA
:100E300008FB00BF4DF808EDFFF7CEFF94BF01207F
:100E400000205DF808FB00BF4DF808EDFFF7C4FF78
:100E500034BF012000205DF808FB00BF4FEA410CC1
:100E60007FEA6C5C02D150EA013C0AD14FEA430CA4
:100E70007FEA6C5C02D152EA033C02D14FF00000E1
:100E800070474FF0010070474FEA410212F500121F
:100E900015D211D56FF47873B3EB625212D94FEAC1
:100EA000C12343F0004343EA505311F0004F23FAAB
:100EB00002F018BF404270474FF00000704750EA00
:100EC000013005D111F0004008BF6FF000407047BD
:100ED0004FF00000704700BF4A0011D212F5001217
:100EE00011D20DD56FF47873B3EB62520ED44FEA82
:100EF000C12343F0004343EA505323FA02F0704702
:100F00004FF00000704750EA013002D14FF0FF303F
:100F100070474FF0000070474FEA4102B2F1E043E2
:100F200024BFB3F5001CDCF1FE5C0DD901F0004CD0
:100F30004FEAC0024CEA5070B2F1004F40EB830020
:100F400008BF20F00100704711F0804F21D113F14C
:100F50003872BCBF01F00040704741F480114FEA85
:100F60005252C2F11802C2F1200C10FA0CF320FA0E
:100F700002F018BF40F001004FEAC1234FEAD3232B
:100F800003FA0CFC40EA0C0023FA02F34FEA430395
:100F9000CCE77FEA625307D150EA01331EBF4FF01E
:100FA000FE4040F44000704701F0004040F0FE4039
:100FB00040F40000704700BF10B504460E4B18788F
:100FC0004FF47A73B3FBF0F30C4A1068B0FBF3F004
:100FD00000F0BCF868B90F2C01D901200AE000220A
:100FE00021464FF0FF3000F055F8034B5C600020C5
:100FF00000E0012010BD00BF000000200C00002018
:1010000008B50B4B1A6842F400721A601A6842F471
:1010100080621A601A6842F480721A60032000F03D
:101020001BF80020FFF7C8FF00F050FF002008BDAC
:10103000003C0240034A1168034B1B780B441360C9
:10104000704700BF2402002000000020014B1868F8
:10105000704700BF2402002010B50446C31E042BB5
:101060000FD80A4AD36823F4E0631B041B0C240244
:1010700004F4E064234343F0BF6343F40033D360DC
:1010800010BDA221024800F003FFEAE700ED00E0F6
:101090007865000870B505460C4616460F2A25D817
:1010A0000F2C28D81B4BDB68C3F30223C3F10702C4
:1010B000042A28BF0422191D062921D9033B4FF019
:1010C000FF3101FA02F224EA02049C4001FA03F320
:1010D00026EA03063443002D14DB2401E4B205F1B3
:1010E000604505F5614585F8004370BDBA210A48A1
:1010F00000F0CEFED4E7BB21074800F0C9FED1E7DF
:101100000023DCE705F00F052401E4B2034B5C5536
:10111000EBE700BF00ED00E07865000814ED00E0AB
:1011200010B5041E08DB04F01F026409012393407C
:10113000044A42F8243010BDCE21034800F0A8FE36
:10114000F1E700BF00E100E0786500080138B0F188
:10115000807F0AD2064B5860064AF02182F823109D
:101160000020986007221A6070470120704700BF76
:1011700010E000E000ED00E02DE9F04782B080468D
:101180000E46A44B984217D003F58063984213D0C3
:1011900003F5806398420FD003F5806398420BD02B
:1011A00003F58063984207D003F54063984203D06B
:1011B000C321994800F06CFE33689AB212B11B0C3F
:1011C0001B041BB1C421944800F062FE7368012B1C
:1011D0001ED9112B1CD0022B1AD0122B18D08F4ADB
:1011E000934215D002F58012934211D002F580127D
:1011F00093420DD0A2F5F812934209D002F5801265
:10120000934205D002F58012934201D0032B04D102
:10121000B368022B06D8002445E0C5217E4800F0C3
:1012200037FEF5E7C6217C4800F032FEF3E7EA21FD
:10123000794800F02DFE90E0042300E000238B406D
:1012400003430232764941F82230764B1A68FB4359
:1012500003EA0201706810F4803F01D047EA0201FE
:10126000704A1160526803EA0201706810F4003F8E
:1012700001D047EA02016B4A5160926803EA020119
:10128000706810F4801F01D047EA0201654A91603E
:10129000D2681340716811F4001F01D047EA0203BD
:1012A000604AD36001340F2C00F2B0800125A540C4
:1012B00037682F40BD42F5D17368022B01D0122B45
:1012C0002BD13369CBB1092B17D0012B15D0022BB1
:1012D00013D0042B11D0052B0FD0062B0DD0072BCC
:1012E0000BD0082B09D00A2B07D00C2B05D00F2BC5
:1012F00003D0D721484800F0CBFDE208083258F867
:10130000220004F0070399000F238B4020EA03001A
:1013100033698B40034348F82230D8F800204FEA65
:10132000440A4FF0030909FA0AF96FEA090909EAC0
:101330000202736803F0030303FA0AF31343C8F8C5
:10134000003073685A1E012A03D9112B01D0122BC9
:1013500018D1F368032B3FF66AAFD8F8082009EAE2
:101360000202F36803FA0AF31343C8F80830D8F806
:10137000042022EA05027368C3F30015A540154353
:10138000C8F80450D8F80C3009EA0309B36803FA26
:101390000AF343EA0903C8F80C30736813F0805F5E
:1013A00080D000230193204B5A6C42F480425A644F
:1013B0005B6C03F480430193019BA208911C184BC2
:1013C00053F8210004F0030399000F238B4020EA17
:1013D0000300104B98453FF431AF03F58063984507
:1013E0000ED003F5806398450CD003F580639845D3
:1013F0000AD003F5806398453FF41EAF07231EE72C
:1014000001231CE702231AE7032318E702B0BDE813
:10141000F08700BF00000240B46500080000111012
:1014200000380140003C01400038024038B5054614
:101430000C4621B12B691C4207D1002038BD4FF466
:10144000C771034800F024FDF4E70120F6E700BF70
:10145000B465000870B5064615460C4629B1012D45
:1014600009D875B92404B46170BD40F2AF110648C3
:1014700000F00EFDF3E74FF4D871034800F008FDCB
:10148000EFE7B461F0E700BFB465000808B5054BAD
:101490005B69034200D108BD024B586100F0F2FBCA
:1014A000F9E700BF003C0140002800F03B8270B526
:1014B00082B0044603680F2B39D8236813F0010F5C
:1014C0004DD063682BB1B3F5803F02D0B3F5A02FA8
:1014D00032D1A54B9B6803F00C03042B36D0A24BF2
:1014E0009B6803F00C03082B2BD06368B3F5803F97
:1014F0005FD0B3F5A02F62D09B4B1A6822F48032E4
:101500001A601A6822F480221A606368002B60D087
:10151000FFF79CFD0546944B1B6813F4003F1ED15A
:10152000FFF794FD401B6428F5D90320FFE1F82163
:101530008E4800F0ADFCC0E7FD218C4800F0A8FC0F
:10154000C7E7894B5B6813F4800FCED0864B1B68CE
:1015500013F4003F03D06368002B00F0E58123689B
:1015600013F0020F67D0E368012B41D823691F2BCA
:1015700044D87D4B9B6813F00C0F4AD07A4B9B6884
:1015800003F00C03082B3FD0E368002B77D0784B97
:1015900001221A60FFF75AFD0546734B1B6813F0D2
:1015A000020F63D1FFF752FD401B0228F5D903203B
:1015B000BDE16D4A136843F480331360A5E76A4BBD
:1015C0001A6842F480221A601A6842F480321A6063
:1015D0009BE7FFF73BFD0546634B1B6813F4003F99
:1015E000BDD0FFF733FD401B6428F5D903209EE1F1
:1015F00040F22F115D4800F04BFCB7E74FF49871B3
:101600005A4800F045FCB4E7574B5B6813F4800F71
:10161000BAD1554B1B6813F0020F04D0E368012BBD
:1016200001D0012083E1504A136823F0F8032169B7
:1016300043EAC1031360236813F0080F49D06369BC
:10164000012B2ED8636993B34A4B01221A60FFF72E
:10165000FDFC0546444B5B6F13F0020F39D1FFF7D9
:10166000F5FC401B0228F5D9032060E13E4A1368CF
:1016700023F0F803216943EAC1031360DBE73C4B25
:1016800000221A60FFF7E2FC0546374B1B6813F097
:10169000020FD0D0FFF7DAFC401B0228F5D9032057
:1016A00045E14FF4B871314800F0F2FBCAE7314B25
:1016B00000221A60FFF7CAFC05462B4B5B6F13F044
:1016C000020F06D0FFF7C2FC401B0228F5D9032009
:1016D0002DE1236813F0040F00F08780A368012B2D
:1016E00001D9052B38D1204B1B6C13F0805F39D109
:1016F000002301931C4B1A6C42F080521A641B6C3D
:1017000003F080530193019B01251B4B1B6813F4CD
:10171000807F33D0A368012B44D0052B48D0124BD7
:101720001A6F22F001021A671A6F22F004021A6778
:10173000A368002B46D0FFF789FC06460A4B1B6FB7
:1017400013F0020F4FD1FFF781FC801B41F2883369
:101750009842F3D90320EAE04FF4CE71034800F039
:1017600097FBC0E70025D0E700380240F06500088D
:1017700000004742800E4742007000406E4A1368E6
:1017800043F480731360FFF761FC06466A4B1B68E5
:1017900013F4807FBED1FFF759FC801B0228F5D9D6
:1017A0000320C4E0654A136F43F001031367BFE7EA
:1017B000624B1A6F42F004021A671A6F42F001027C
:1017C0001A67B5E7FFF742FC06465C4B1B6F13F048
:1017D000020F08D0FFF73AFC801B41F28833984291
:1017E000F3D90320A3E0002D3AD1A369022B3DD801
:1017F000A369002B00F09A80504A926802F00C0214
:10180000082A00F09680022B78D1E36913B1B3F572
:10181000800F31D1236A3F2B34D8636AC03BF02B51
:1018200036D8A36A022B05D0042B03D0062B01D097
:10183000082B33D1E36A023B0D2B35D8404B0022F5
:101840001A60FFF703FC05463C4B1B6813F0007F52
:1018500030D0FFF7FBFB401B0228F5D9032066E0E0
:10186000364A136C23F080531364BEE740F2DF1155
:10187000344800F00DFBBBE74FF4F471314800F041
:1018800007FBC7E740F2E9112E4800F001FBC4E76F
:101890004FF4F5712B4800F0FBFAC2E740F2EB1170
:1018A000284800F0F5FAC5E74FF4F671254800F036
:1018B000EFFAC3E7E369226A1343626A43EA8213D9
:1018C000A26A5208013A43EA0243E26A43EA026327
:1018D0001A4A53601A4B01221A60FFF7B7FB0446FD
:1018E000164B1B6813F0007F06D1FFF7AFFB001B00
:1018F0000228F5D903201AE0002018E0104B00223E
:101900001A60FFF7A3FB04460C4B1B6813F0007F23
:1019100006D0FFF79BFB001B0228F5D9032006E049
:10192000002004E001207047012000E0002002B008
:1019300070BD0120FBE700BF00700040003802408E
:1019400060004742F0650008264B9B6803F00C03DB
:10195000042B44D0082B01D0234870472DE9F04BCD
:10196000204B5A6802F03F025B6813F4800F13D0DB
:101970001C4B5968C1F3881100231C48A1FB0001CE
:10198000FEF738FC174B5B68C3F3014301335B0080
:10199000B0FBF3F0BDE8F08B124B5B68C3F3881328
:1019A0001E4600275C010025E41A65EB0705A90126
:1019B00041EA9461A001001B61EB0501CB0043EA01
:1019C0005073C400A01943EB07018B0243EA905304
:1019D0008402204619460023FEF70CFCD2E7034898
:1019E000704700BF003802400024F40040787D01B9
:1019F000002800F0F98070B504460D460368013BED
:101A00000E2B11D8072D15D8794B1B6803F00F0347
:101A1000AB4215D2EBB2764A1370136803F00F0392
:101A2000AB420DD0012070BD4FF41471714800F02D
:101A30002FFAE7E740F251216E4800F029FAE3E778
:101A4000236813F0020F29D013F0040F04D06A4A60
:101A5000936843F4E0539360236813F0080F04D0B5
:101A6000654A936843F460439360A3687BB1802B1D
:101A70000DD0902B0BD0A02B09D0B02B07D0C02BB2
:101A800005D0D02B03D0E02B01D0F02B33D15A4A14
:101A9000936823F0F003A1680B439360236813F06D
:101AA000010F42D06368032B2BD86368012B2ED023
:101AB0009A1E012A32D9504A126812F0020F00F021
:101AC00095804D498A6822F0030213438B60FFF72B
:101AD000BDFA0646484B9B6803F00C036268B3EB03
:101AE000820F22D0FFF7B2FA801B41F2883398426E
:101AF000F0D9032097E74FF41D713E4800F0C8F974
:101B0000C5E740F27B213B4800F0C2F9CDE73A4AF5
:101B1000126812F4003FD4D1012084E7364A1268DB
:101B200012F0007FCDD101207DE7314B1B6803F01F
:101B30000F03AB4209D9EAB22D4B1A701B6803F0B0
:101B40000F03AB4201D001206DE7236813F0040FAF
:101B500014D0E3685BB1B3F5805F08D0B3F5A05F44
:101B600005D0B3F5C05F02D0B3F5E05F30D1224AB3
:101B7000936823F4E053E1680B439360236813F008
:101B8000080F15D023695BB1B3F5805F08D0B3F5BA
:101B9000A05F05D0B3F5C05F02D0B3F5E05F1DD103
:101BA000154A936823F46043216943EAC1039360B3
:101BB000FFF7CAFE104B9B68C3F303130F4AD35CB5
:101BC000D8400F4B18600020FFF7F6F900202AE7F5
:101BD00040F2B921074800F05BF9C8E74FF43071D3
:101BE000044800F055F9DBE70120704701201AE7AF
:101BF000003C0240F06500080038024060650008C3
:101C00000C00002070B588B000240694079401945D
:101C1000194B1A6B42F004021A631A6B02F00402A9
:101C20000192019A02941A6B42F080021A631B6BB4
:101C300003F080030293029B4FF4804303930F4B06
:101C40000493012605960E4D03A92846FFF794FA42
:101C50004FF4004303930494059603A92846FFF725
:101C60008BFA224621462820FFF714FA2820FFF796
:101C700057FA08B070BD00BF0038024000002110C4
:101C800000080240B0F5804F00D0704738B54FF4DF
:101C9000004100F1804000F5E430FFF7C7FB434B03
:101CA0001B78DBB2092B36D8DFE803F04105112A97
:101CB00036354566717B00282DD13C4B02221A70C7
:101CC0003B4B00221A703B4B01221A7023E0384B29
:101CD0001B78DBB2384AD05428B1364A1378B3FAAD
:101CE00083F35B091370324A13780133DBB213704C
:101CF0001378DBB2072B0ED12C4B03221A700AE0AB
:101D00002C4B1B78DBB2984202D0284B00221A7071
:101D1000264B04221A7038BD012802D0234B002222
:101D20001A700123214A1370244A1370F3E72448E0
:101D300001F00EF8EFE71E4D2B78DBB21E4CE25C93
:101D40004FF400411F48FFF785FB2B78DBB2E35CC3
:101D50002BB1184A1378B3FA83F35B091370144A52
:101D600013780133DBB213701378DBB2072BD2D1B7
:101D70000E4B07221A70CEE70E4B1A784FF4004133
:101D80001048FFF767FB094B08221A70C3E70122CE
:101D90004FF400410B48FFF75DFB044B09221A701A
:101DA000B9E7024B01221A70B5E700BF0800002016
:101DB00029020020280200202C020020FC01002023
:101DC000286600080008024010B594B030220021B7
:101DD00008A800F077F9002403940494059406946D
:101DE00007940194154B1A6C42F080521A641B6CD4
:101DF00003F080530193019B0294114B1A6842F443
:101E000040421A601B6803F440430293029B022382
:101E1000089301230B9310230C930E9408A8FFF74B
:101E200043FB0F23039304940594069407942146DF
:101E300003A8FFF7DDFD14B010BD00BF003802405D
:101E40000070004010B5FFF7DBF8FFF7BDFFFFF7AC
:101E5000D9FE0EE00A4B195D0A4800F079FF013403
:101E6000E4B2072CF6D9084800F0E6FF074B002241
:101E70001A70064B1B78002BFBD00024F1E700BF43
:101E80002C020020306600084C660008FC0100208F
:101E90007047000008B50C4A11784B1CDBB2137078
:101EA000114408711A440021117101330F2B02D81B
:101EB0000A2800D030B90022034901F8042B04207D
:101EC000FEF78EF908BD00BF0002002082B000219D
:101ED00000910B4B5A6C42F480425A645A6C02F4E3
:101EE00080420092009A01911A6C42F080521A646A
:101EF0001B6C03F080530193019B02B0704700BF3D
:101F0000003802407047FEE7FEE7FEE7FEE7704755
:101F10007047704708B5FFF78DF808BD08B54FF456
:101F20008040FFF7B3FA08BD024B09221A604FF058
:101F3000FF307047340200204FF400534B60002004
:101F4000704701207047002070471046704770B5F9
:101F50000E461546002403E0305DFFF79BFF013479
:101F6000AC42F9DB284670BD0346164A1178164A82
:101F7000521A1649096839B1144908680344934252
:101F800006D8124A13607047104911480860F3E7F9
:101F900030B589B001AC0F4D0FCD0FC495E80700E7
:101FA00003C4228001A8FEF7A5FA024601A9012078
:101FB000FFF7CDFF084B0C221A604FF0FF3009B03D
:101FC00030BD00BF00040000000002201402002009
:101FD0003802002034660008340200200F49D1F88E
:101FE000883043F47003C1F888300D4B1A6842F012
:101FF00001021A60002098601A6822F0847222F4AC
:1020000080321A60074A5A601A6822F480221A60E5
:10201000D8604FF000638B60704700BF00ED00E0B8
:102020000038024010300024DFF834D0002103E0F3
:102030000C4B5B58435004310B480C4B42189A42EE
:10204000F6D30B4A02E0002342F8043B094B9A42C4
:10205000F9D3FFF7C3FF00F011F8FFF7F3FE704765
:10206000000002209069000800000020E00100202C
:10207000E001002038020020FEE7000070B50D4EA0
:102080000D4CA41BA4100025A54209D10B4E0C4CED
:1020900004F05AFAA41BA4100025A54205D170BD76
:1020A00056F8253098470135EEE756F82530984721
:1020B0000135F2E788690008886900088869000826
:1020C0008C69000802440346934200D1704703F82C
:1020D000011BF9E72DE9FF4755EC104B0D9FDDF88B
:1020E00030A0002D0E4691461946B8BF22462B4619
:1020F00027F02007BBBF05F100431D4600232D2319
:10210000B8BF1446462F0B7004D0452F00D10136BE
:10211000022100E0032103AB019302AB009332469E
:10212000534645EC104B01F0B3FE472F804602D1D9
:1021300019F0010F26D0462F08EB060911D198F8A7
:102140000030302B0AD10022002320462946FEF71A
:1021500053FE18B9C6F10106CAF80060DAF800307B
:1021600099440022002320462946FEF745FE38B94F
:102170003022039B4B4505D2591C03911A70F8E796
:10218000CDF80C90039B0E9AA3EB08034046136016
:1021900004B0BDE8F087F7B500290446BABF49424C
:1021A0002D232B23092904F8022B437020DD0DF188
:1021B00007031F460A2691FBF6F506FB1511303181
:1021C000092D03F8011C03F1FF32294609DC3031E7
:1021D000023B02F8011CBB42224604D3101A03B092
:1021E000F0BD1346E7E713F8012B04F8012BF2E7E3
:1021F000302319448370021DC170EFE72DE9F04FC1
:102200008DB00C46DDF8588016461F46054603F093
:102210009DF8036804931846FEF76CF900230A93AF
:10222000D8F800300590073323F0070303F10802C4
:1022300094F818A0D4F800B0C8F80020D3E900231F
:10224000C4E91223D4E9128929F000430793CDF899
:1022500018804FF0FF32A74BDDE90601FEF7FEFDC7
:1022600070BB4FF0FF32A34BDDE90601FEF7D8FD4E
:1022700030BB0022002340464946FEF7C7FD10B19F
:102280002D2384F843309C4A9C4BBAF1470F8CBFF6
:102290009046984603232BF00402236122604FF0FE
:1022A0000009009733460BAA2146284600F0E6F9BC
:1022B000013040F08D804FF0FF300DB0BDE8F08F61
:1022C00042464B4640464946FEF7C8FD10B18C4A8F
:1022D0008C4BDAE761684B1C4BF480620AA83ED154
:1022E000062363600023CDE9020309AB009349ECA8
:1022F000108B0DF123032260CDF804A061682846FD
:10230000FFF7E8FE0AF0DF03472B804609D1099B5F
:10231000D81C02DB6268934247DDAAF1020A5FFA29
:102320008AFABAF1650F099924D80139524604F1A5
:1023300050000991FFF72FFF0A9A1318012A8146CE
:10234000236102DC2268D10701D5013323619DF8A6
:102350002330002BA5D02D2384F84330A1E7BAF118
:10236000670F00F07781BAF1470FBBD10029B9D1CF
:102370000123B6E7BAF1660F19D1002963680CDDB5
:10238000216113B92268D20702D501330B442361BE
:10239000099BA3654FF00009D9E713B92268D0075C
:1023A00001D50233F3E70123F1E74FF0670ADDE9D6
:1023B0000932934205DB22682361D107E8D5013356
:1023C000E5E7002BD4BFC3F1020301231344DEE78A
:1023D00023685A0507D42369424631462846B84740
:1023E00001302BD167E7BAF1650F40F2DC800022A3
:1023F0000023D4E91201FEF7FFFC002833D00123AB
:10240000414A31462846B84701303FF454AFDDE930
:1024100009239A4202DB2368D8070FD5DDE904239C
:1024200031462846B84701303FF445AF4FF0000829
:1024300004F11A090A9B013B434509DC23689B0709
:1024400000F10381E0680B9B9842B8BF184634E75F
:1024500001234A4631462846B84701303FF42BAFA6
:1024600008F10108E6E7099B002B2BDC0123264A33
:1024700031462846B84701303FF41DAF099B23B9C8
:102480000A9B13B92368D907D8D5DDE9042331465F
:102490002846B84701303FF40EAF4FF0000904F171
:1024A0001A0A099B5B424B4501DC0A9B94E7012316
:1024B000524631462846B84701303FF4FCAE09F198
:1024C0000109EEE70A9AA36D9A42A8BF1A46002AAC
:1024D000914607DD1346314642462846B84701304B
:1024E0003FF4E9AE04F11A034FF0000B29EAE97951
:1024F000069315E0FFFFEF7F646600086066000842
:102500006C66000868660008706600080123069A79
:1025100031462846B84701303FF4CDAE0BF1010BF0
:10252000D4F858A0AAEB09035B45EFDCDDE90923E9
:102530009A42D04415DB2368DA0712D40A9B099922
:10254000A3EB0A02A3EB010A9245A8BF9246BAF197
:10255000000F0EDC4FF000082AEAEA7A04F11A09AB
:1025600019E0DDE9042331462846B8470130E5D1BA
:10257000A1E65346424631462846B8470130E9D1E4
:1025800099E601234A4631462846B84701303FF4D0
:1025900092AE08F10108DDE909239B1AA3EB0A03B7
:1025A0004345EEDC4AE70A9A012A01DCDB073AD50B
:1025B0000123424631462846B84701303FF47BAEFE
:1025C000DDE9042331462846B847013008F1010807
:1025D0003FF471AE0A9B002203F1FF3AD4E91201E5
:1025E0000023FEF709FCC8B9534642463146284647
:1025F000B84701300ED15EE60123524631462846E7
:10260000B84701303FF457AE08F101080A9B013B7F
:102610004345F1DC4B4604F15002DEE64FF0000882
:1026200004F11A0AF2E70123DFE701234A463146A3
:102630002846B84701303FF43EAE08F10108E36890
:102640000B9A9B1A4345F0DCFCE64FF0000804F1BE
:102650001909F4E700293FF48BAE0023CDE902030A
:1026600009AB009349EC108B2260CDF804A00DF16A
:1026700023032846FFF72EFD804648E62DE9F04764
:1026800091461F468A680B69DDF820809342B8BFE7
:102690001346C9F8003091F8432006460C4612B1A3
:1026A0000133C9F800302368990642BFD9F80030D9
:1026B0000233C9F80030256815F0060507D104F18A
:1026C000190AE368D9F800209B1AAB4228DC94F879
:1026D00043302268003318BF012392062DD404F141
:1026E000430239463046C047013020D02368E568B0
:1026F000D9F8002003F00603042B08BFAD1AA36825
:1027000022690CBF25EAE57500259342C4BF9B1AD8
:10271000ED184FF000091A344D451AD1002008E099
:102720000123524639463046C047013003D14FF0AD
:10273000FF30BDE8F0870135C3E7E1185A1C3020AF
:1027400081F84300224494F8451082F84310023384
:10275000C5E70123224639463046C0470130E6D05E
:1027600009F10109D8E700002DE9F04301F1430C1C
:102770000C46097E85B06E291746064698460C9A87
:1027800000F0B38022D8632936D00AD8002900F09F
:10279000B980582900F0838004F1420584F8421082
:1027A00032E0642901D06929F6D120681368050652
:1027B00003F104012AD51B681160002B03DA2D22D6
:1027C0005B4284F843206F480A2239E0732900F005
:1027D0009D8008D86F2920D07029DDD1236843F06F
:1027E0002003236003E0752917D07829D4D17823FA
:1027F00084F84530644855E01368191D1B68116062
:1028000004F1420584F8423001238CE01B6811601A
:1028100010F0400F18BF1BB2CFE713682568181DD2
:102820001060280601D51B6802E06806FBD51B88EE
:1028300054486F2914BF0A220822002184F843104B
:102840006568A560002DC0F29580216821F0040123
:102850002160002B3DD1002D40F08E806546082A76
:102860000BD12368DB0708D5236962689A42DEBF73
:10287000302305F8013C05F1FF35ACEB050323617E
:10288000CDF800803B4603AA21463046FFF7F6FE0E
:1028900001304DD14FF0FF3005B0BDE8F08339482D
:1028A00084F84510136821681D1D1B6815600A0611
:1028B0000BD5CA0744BF41F0200121601BB9226833
:1028C00022F0200222601022B7E74D0648BF9BB2DB
:1028D000EFE76546B3FBF2F102FB1133C35C05F889
:1028E000013D0B460029F5D1B9E7136825686169F8
:1028F000181D106028061B6801D5196002E06A06E1
:10290000FBD51980002323616546B9E71368191DBB
:1029100011601D68626800212846FDF7F9FD08B1C5
:10292000401B606063682361002384F84330A7E79D
:1029300023692A4639463046C0470130AAD0236869
:102940009B0713D4E068039B9842B8BF1846A3E7DF
:1029500001234A4639463046C04701309AD00135F6
:10296000E368039A9B1AAB42F2DCEBE7002504F123
:102970001909F5E7002BACD1037884F8423004F153
:1029800042056CE772660008836600082DE9F04F87
:102990009A468B6816465A1EB2F5AE7F87B083BF43
:1029A0006FF4AE729B180193002386BF40F25D1353
:1029B0008B6001930B6888464FF0000B43F4F06383
:1029C00048F81C3BCDE903BB07460C4645465A4632
:1029D000D946CDF808B0A16881B133681B78492B7E
:1029E00071D04DD8392B40D8312B80F088802D2BD9
:1029F00000F0908015D82B2B00F08C80B9F1000FDF
:102A000003D0236823F480732360013A012A00F283
:102A1000EA80454500F2DC800126304607B0BDE87B
:102A2000F08F2E2B00F09F80302BE7D1206810F420
:102A3000807F64D0019B20F08000206009F10109B3
:102A40001BB1013B01310193A160A368013BA3606D
:102A50002369013323617368013B002B736040F3EA
:102A6000AC80336801333360B5E7452B00F08580D7
:102A7000462B6AD0412BC1D1012ABFD1022246E0A8
:102A8000652B7AD018D8542B66D011D84E2BB5D1DF
:102A9000002A46D1B9F1000F45D1216801F4E06068
:102AA000B0F5E06F3FD121F4F061216001222EE00A
:102AB000592B1ED0612BDEE76E2BE9D015D8662B83
:102AC00043D0692B9AD1BBF1000F38D1B9F1000F77
:102AD00097D1216801F4E060B0F5E06F95D121F461
:102AE000F06121604FF0010B11E0742B34D0792B91
:102AF00084D1BBF1070F81D14FF0080B07E012EB37
:102B00000B0F7FF47BAF216821F4C07121602B7023
:102B100001359AE7216808067FF570AF21F0800142
:102B2000F4E7022A47D0BBF1010F03D0BBF1040F39
:102B30007FF464AF0BF1010B5FFA8BFBE7E7BBF1AE
:102B4000030FF7D0BBF1050FF2E7BBF1020F7FF4E3
:102B500055AF4FF0030BDAE7BBF1060F7FF44EAF32
:102B60004FF0070BD3E7216888057FF547AF21F4C5
:102B700020712160CDF80890C9E7216801F4A060B8
:102B8000B0F5806F06D048057FF538AFB9F1000F7A
:102B90003FF43BAF880558BF029821F4F06158BF5D
:102BA000A9EB000041F4C07158BFCDE903052160D5
:102BB0004FF00009ABE70322A9E7D4F88031059272
:102BC000314638469847059A00283FF404AF15E788
:102BD000D4F87C3115F8011D3246384698472369F0
:102BE000013B236115E70BF1FF33062B0AD8BBF13C
:102BF000020F68D9ABF1030B5FFA8BFBA5EB0B0B54
:102C00005D454BD12368DA051FD55B0568D415F8FF
:102C1000011C2369652903F1FF3305F1FF3B2361A3
:102C20000DD045290BD0D4F87C3132463846984730
:102C3000236915F8021C013BA5F1020B2361D4F8AE
:102C40007C313246384698475D46266816F01006B5
:102C50007AD12E70236803F4C063B3F5806F42D13C
:102C6000029BA9EB03035A42002B49D100224146A3
:102C7000384600F021FF2568DAF8003015F0020F21
:102C800003F1040259EC108BCAF8002043D01B68F2
:102C9000C3E90089E3680133E360BEE6D4F87C3120
:102CA00015F8011D3246384698472369013B2361D8
:102CB000A6E7D4F87C3115F8011D3246384698470E
:102CC0002369013B23614545F3D8A5E6D4F87C315F
:102CD00015F8011D3246384698472369013B2361A8
:102CE0004545F3D898E6039B002BBFD004990A23EF
:102CF00032460131384600F06BFF039B049DC21A37
:102D000004F26F139D4228BF04F5B7750F4928469A
:102D100000F0A0F8AAE715F00405B8D11F6810EE7E
:102D2000102A4B4610EE100A4946FEF797F828B1D4
:102D3000284600F089F887ED000AABE7404649468F
:102D4000FEF7EAF83860A5E7002666E69466000814
:102D50000FB40A4B13B51C6824B1A36913B92046FC
:102D600001F03EFF05AB049AA1680193204603F0F1
:102D7000B3F902B0BDE8104004B070471000002065
:102D800070B50E46054618B183690BB901F028FFEE
:102D9000AB69AC6813B9284601F022FF234B9C4273
:102DA00017D16C68A3891B071DD52369DBB1013ED0
:102DB000A36816F8011F013BA360E9B9002B2EDAC6
:102DC00022460A21284600F015FF013011D00A20C2
:102DD00011E0174B9C4201D1AC68E3E7154B9C42D4
:102DE00008BFEC68DEE72146284600F055FF0028C2
:102DF000DDD04FF0FF3070BD002B04DAA2699A429B
:102E000006DC0A2904D023685A1C22601970CFE717
:102E10002246284600F0EEFE0130C9D1E9E72368DA
:102E20000A205A1C22601870E5E700BF20670008DE
:102E30004067000800670008024B01461868FFF76A
:102E40009FBF00BF100000209FED010A704700BF28
:102E50000000C07F0EB400B59CB01DAB0290069080
:102E60006FF00041094807910491094953F8042B78
:102E700005910068019302A903F00EF8029B00225D
:102E80001A701CB05DF804EB03B07047100000200E
:102E90000802FFFF70B504460D4645EC104B164680
:102EA00002F0B6FD51EC100B7EB1C5F30A53C3F12D
:102EB0006B03002B09DD1B0503F17F55002405F58D
:102EC000401522462B46FDF72FFD70BD0000000087
:102ED0002DE9F04F1F46A1B00023814638460E462B
:102EE00017921C9302F02FFA80460068FDF702FB50
:102EF0004FF0000A04464FF0000B1B961B9B1A78FC
:102F00000D2A32D8092A36D2002A3ED000230D934A
:102F10001B9D2B78302B40F0AC806B78582B01D068
:102F2000782B67D10D9B01931CAB009302971DABCF
:102F3000884A1BA9484601F02CFF10F007040646FA
:102F400005D0062C2BD1013500231B950D93179B23
:102F5000002B40F09A850D9BE3B152460BF10043E4
:102F600043EC102B21B0BDE8F08F2B2A15D02D2A71
:102F700004D0202ACAD101331B93BFE701220D924E
:102F80005A1C1B925B78002BC2D1179B1B96002BFF
:102F900040F0798552465B46E2E70022EFE71C9A53
:102FA0003AB135211EA802F02BFE1C99484602F0CA
:102FB00098FA013C042C06D8DFE804F00A03141741
:102FC0000A00DDE91EAB3007C1D54BF0004BBEE770
:102FD000DDE91EA31D9A23F4801302F2334243EA73
:102FE000025BF0E7DFF870B1EDE76FF0004B4FF0F8
:102FF000FF3AE8E71B9B5A1C1B925B78302BF9D0F9
:10300000002BA4D00123002506931B9B0893079552
:1030100005950A221B980778A7F13003D9B2092930
:1030200029D92246D8F8001003F0BDF9002831D084
:103030000020059C04903B460246652B01D0452BA1
:1030400014D124B910B9069B002B9ED000241B9EDE
:10305000731C1B9373782B2B78D02D2B70D04FF0D3
:10306000000CA3F13007092F7CD91B964FF0000EFE
:103070009AE00023C7E705990829DDBF079902FBFD
:103080000133079302FB0535059B0130013305939E
:103090001B90BFE71B9B1A191B92059A1B5D002A08
:1030A00037D0059C0246A3F13001092913D901212B
:1030B0000491C2E71B9B5A1C1B925B780130302B9A
:1030C000F8D0A3F13102082A00F2E4841B9A089296
:1030D000024600200446B3F1300E00F1010112D087
:1030E0000A4400EB040C21460A278C4513D1211811
:1030F000082904F10104044419DC079B0A2101FB9F
:1031000003E3079300211B9B581C1B905B78084628
:10311000C9E70598D3E7082901F1010103DC079B02
:103120007B430793E1E71029D8BF7D43DDE7102CEF
:10313000DCBF0A2101FB05E5E4E70123049381E7F5
:103140004FF0010CB31C1B93B3788AE74FF0000CCF
:10315000F8E700BF9C6600080000F07F1B9B5F1C27
:103160001B975B78302BF9D0A3F13107082F3FF67E
:103170007DAFA3F1300E1B9B0A931B9B5F1C1B971B
:103180005B78A3F13008B8F1090F37D90A997F1A93
:10319000082F44F61F6737DCBE45A8BFBE46BCF10A
:1031A000000F01D0CEF1000E002C51D100287FF489
:1031B000CEAE069A002A7FF4CAAE049A002A7FF4A3
:1031C000E4AE4E2B27D021DC492B7FF4DEAEA049A4
:1031D0001BA802F011F800283FF4D7AE1B9B9D49B5
:1031E000013B1BA81B9302F007F810B91B9B01338E
:1031F0001B93DFF874B24FF0000AA8E60A2101FB26
:103200000E3EAEF1300EB8E7BE46C8E7692BDED001
:103210006E2B7FF4BAAE90491BA801F0EDFF002899
:103220003FF4B3AE1B9B1B78282B0ED11EAA8B49F3
:103230001BA801F0F5FF052807D11F9BDDF878A03A
:1032400043F0FF4B4BF4E00B81E6DFF824B2D2E70A
:10325000AEEB02030693059B0798002B08BF23469D
:10326000102C0593A046A8BF4FF01008FDF7E2FA16
:10327000092C82468B4613DC069B002B3FF467AE7D
:10328000069B7ADD162B61DC754A02EBC30EDEE984
:10329000000152465B46FDF747FB82468B4656E6E9
:1032A0006F4B03EBC80353E91223FDF73DFB0646C2
:1032B00028460F46FDF7BEFA02460B463046394611
:1032C000FDF77CF90F2C82468B46D5DD069BA4EBDF
:1032D00008089844B8F1000F40F3968018F00F03E7
:1032E0000AD05F4901EBC30152465B46D1E90001B8
:1032F000FDF71AFB82468B4638F00F0873D0B8F5FD
:103300009A7F47DD0024A046079405942223DFF826
:1033100058B1C9F800304FF0000A079B002B3FF46A
:1033200016AE1C99484602F0DCF80599484602F0B2
:10333000D8F84146484602F0D4F80799484602F0CA
:10334000D0F82146484602F0CCF800E6069AC4F1CF
:1033500025039342BADB424DC4F10F0405EBC401CF
:1033600052465B46D1E90001FDF7DEFA069B1C1BC5
:1033700005EBC405D5E900238DE713F1160FA5DB96
:10338000374AA2EBC302D2E9002350465946FDF763
:10339000F5FB82E70023334E4FEA28185046594682
:1033A0001D46B8F1010F21DC0BB182468B462D4B37
:1033B000ABF1547B03EBC50552465B46D5E90001F2
:1033C000FDF7B2FA284B0A460B4028498B42824649
:1033D00098D8A1F580118B4286BFDFF898B04FF0E6
:1033E000FF3A02F1547B0023049377E018F0010FB9
:1033F00006D006EBC503D3E90023FDF795FA0123B8
:1034000001354FEA6808CCE7EDD0C8F1000818F0A4
:103410000F020AD0124B03EBC20350465946D3E9C0
:103420000023FDF7ABFB82468B465FEA2818DAD013
:10343000B8F11F0F20DD0024A04607940594222335
:103440004FF0000A4FF0000BC9F8003065E700BFED
:1034500065660008F36600086D660008B06600083F
:1034600098670008706700080000F07F0000A07CEB
:103470000000F8FFFFFFEF7F18F0100318BF6A236A
:10348000A04D0493504659460023B8F1000F00F3B5
:103490000A810BB182468B46049BBBB1CBF30A5326
:1034A000C3F16B03002B594610DD1F2B40F307813E
:1034B000342BDEBF203B4FF0FF3202FA03F34FF014
:1034C000000ACCBF4FF05C7B03EA010B0022002313
:1034D00050465946FDF790FC0028ACD1079B00935D
:1034E000059A08992346484602F04DF807900028AF
:1034F0003FF408AF069A069B002AC3F10003A8BF59
:1035000000230E93002422EAE2731693A046079B41
:103510004846596801F0B1FF059000283FF4F6AE27
:10352000079B1A69023203F10C0192000C3001F082
:1035300099FF1EAA1DA94BEC10AB4846CDE908AB7C
:1035400002F0DCFA1C9000283FF4E0AE012148466E
:1035500002F0A5F8804600283FF4D8AE1D9E1E9AC2
:10356000002EABBF0E9B169B169D0E9FACBFF7188F
:103570009D1B049BF61A1644634B013E9E42C2F10A
:10358000360280F2AF809B1B1F2BA2EB03024FF091
:10359000010100F39B8001FA03F30F9300230A93C8
:1035A000BE18049BB74215441D443B46A8BF334692
:1035B000AB42A8BF2B46002BC2BFF61AED1AFF1A6A
:1035C0000E9BBBB141461A46484602F007F98046B9
:1035D00000283FF49BAE01461C9A484602F068F86A
:1035E0000C9000283FF492AE1C99484601F079FFF8
:1035F0000C9B1C93002E7ADC069B002B08DD169A90
:103600000599484602F0EAF8059000283FF47EAE9E
:10361000002D08DD2A460599484602F02DF905904F
:1036200000283FF473AE002F08DD41463A46484675
:1036300002F022F9804600283FF468AE059A1C99F2
:10364000484602F087F9044600283FF45FAEC3689D
:103650000C930023C360414602F062F9002855DA5A
:103660000C9BE3B9BAF1000F19D1CBF31303B3B933
:103670002BF000431B0D1B05B3F1D66F0FD9636907
:1036800013B92369012B0ADD21460122484602F0C5
:10369000F3F84146044602F043F9002867DC049B36
:1036A000002B71D13DE618F0010F04D0D5E90023BD
:1036B000FDF73AF901234FEA68080835E5E64FF0CF
:1036C000FF3202FA03F303EA0A0AFFE6C6F17F4675
:1036D00006F57F0606F57B46E23601FA06F30A9305
:1036E0000F915DE700230A9301230F9358E73246B9
:1036F0001C99484602F0C0F81C9000287FF47CAF6B
:1037000004E600BFC866000802FCFFFF5D4640F00B
:1037100086800C9ACBF313032AB3AF4A934253D15A
:10372000049B5046D3B1AD4A2A40B2F1D46F4FF05A
:10373000FF3116D8120DC2F16B0301FA03F3984260
:1037400042D1A74B9D4202D101303FF4DFADA34BE4
:103750002B4003F5801B4FF0000AA0E74FF0FF332A
:10376000EDE70B46EBE77BBBBAF1000F2CD10499D8
:103770009A4A5B46F1B102EA0B01B1F1D66F19DC4E
:10378000B1F15C7F7FF75BAE964A0023CDE914323E
:1037900050465946DDE91423FDF7C6F882468B46AC
:1037A00000297FF4BEAD00287FF4BBAD2223C9F809
:1037B0000030B6E51340A3F580136FEA135B6FEAA0
:1037C0000B5B4FF0FF3A6AE70A9B93B12B423FF441
:1037D00066AF0C9B049A5046594673B1FFF75AFBEB
:1037E00002460B46DDE90801FCF7E8FE82468B46FF
:1037F00055E70F9B13EA0A0FE9E7FFF74BFB024679
:103800000B46DDE90801FCF7D7FE002200238246C3
:103810008B46FDF7F1FA00287FF411AE3FE74146F1
:10382000204602F0BAF957EC106B00224FF08043AB
:1038300010EE100A3946FDF7F3FA002877D00C9BFA
:10384000002B4AD0684B0022CDE90A23664F0026A0
:10385000624B2B400F930F9A644B9A4240F0CE80FC
:10386000DDE90823DDE90A01A5F1547B4BEC10AB3F
:10387000CDE91423CDE90A0102F0CAF8DDE90A0115
:1038800053EC102BFDF750F852465B46FCF796FEC2
:103890000B465249564A1940914282465BD9099BD0
:1038A00002F15472934203D1089B01333FF42EADD1
:1038B000DFF82CB14FF0FF3A1C99484601F011FE99
:1038C0000599484601F00DFE4146484601F009FEC3
:1038D0002146484601F005FE19E6BAF1000F1AD15B
:1038E000CBF31303EBB900223F4B30463946FDF7CB
:1038F0008DFAC8B93046394600223E4BFDF714F820
:1039000006460F4607F1004318961993DDE9182380
:10391000CDE90A239CE7BAF1010F02D1002D3FF453
:103920008EAD0022344B8FE70026324FEAE7314B51
:10393000304639460022FCF7F7FF0C9B06460F463F
:1039400033B901F1004310901193DDE91023DFE753
:10395000CDE91067F9E703F1547B049B002BABD151
:103960002BF000431B0D0F9A1B059A425D46A3D115
:1039700039463046FDF788FAFCF76CFF0B460246E5
:1039800039463046FCF718FE0C9B06460F4633B905
:10399000BAF1000F03D1CBF31305002D6DD00AA3AC
:1039A000D3E9002330463946FDF730FA00287FF48A
:1039B000B8AC07A3D3E9002330463946FDF744FAF3
:1039C00000283FF479AFACE49535A094FFFFDF3FCA
:1039D00035E5AF350000E03FFFFF0F000000F07F4E
:1039E000FFFFEF7F000050390000F03F0000E07F54
:1039F000FFFF9F7C0000E03F0000F0BF049B33B35B
:103A00000F9BB3F1D46F22D827A3D3E9002330460C
:103A10003946FDF705FAA0B139463046FDF75CFAA4
:103A2000002808BF0120FCF705FF0C9B06460F4647
:103A300003BB01F1004312901393DDE91223CDE99A
:103A40000A230B9B0F9A03F1D6639B1A0B939DEDF0
:103A5000080BDDE90AAB01F0DBFF504653EC102BFD
:103A60005946FCF761FFDDE90823FCF7A7FD824614
:103A70008B4672E7CDE91267DFE70DA3D3E9002398
:103A8000FDF7C4F99CE700230D93179A1B9B136065
:103A9000FFF761BA652B4FF000023FF44EAB0121F6
:103AA00014460491FFF7CBBA0000C0FFFFFFDF41CF
:103AB0009535A094FFFFCF3F054B1B6810B41B6AE0
:103AC000044C002B08BF23465DF8044BFFF700BAF7
:103AD00010000020740000202DE9F0478046894640
:103AE00092461E460F463D46089815F8014B01F0D8
:103AF00027FC2044437813F0080332D12D2C32D117
:103B00007C78BD1C0122002E5DD0102E09D1302CF6
:103B100007D12B7803F0DF03582B4FD16C78102698
:103B20000235002A14BF4FF000416FF0004100271A
:103B3000B1FBF6FC384606FB1C1EA4F13003092B32
:103B400017D81C46A64223DD7B1C07D084451CD316
:103B500001D1A64519DB00FB0640012715F8014BF2
:103B6000EBE72F46BFE72B2C04BFBD1C7C781A4621
:103B7000C9E7A4F14103192B01D8373CE2E7A4F1CE
:103B80006103192B04D8573CDCE74FF0FF37E5E71A
:103B90007B1C08D12223C8F800300846BAF1000F78
:103BA00007D1BDE8F08702B14042BAF1000FF8D06A
:103BB0000FB105F1FF39CAF80090F2E73024002E6A
:103BC000AFD10826ADE7302CA3D00A26A9E7000024
:103BD00037B5064C064D2468246A002C08BF2C46D5
:103BE0000094FFF779FF03B030BD00BF1000002044
:103BF00074000020F8B50E461446054618B18369D6
:103C00000BB900F0EDFF214B9C422AD16C68A369EF
:103C1000A360A3891A072ED5236963B3236920689B
:103C2000C01A6369F6B28342374604DC214628464F
:103C300000F06CFF28BBA368013BA36023685A1CFB
:103C400022601E7063690130834204D0A389DB07C0
:103C500019D50A2E17D12146284600F057FF90B1FA
:103C60000FE00B4B9C4201D1AC68D0E7094B9C4262
:103C700008BFEC68CBE72146284600F00DF8002885
:103C8000CCD04FF0FF373846F8BD00BF20670008A2
:103C90004067000800670008324B70B51D68064693
:103CA0000C4625B1AB6913B9284600F099FF2E4B9D
:103CB0009C420FD16C68B4F90C309AB215072CD421
:103CC000D00611D40922326043F04003A3814FF0A3
:103CD000FF303EE0254B9C4201D1AC68EBE7244B22
:103CE0009C4208BFEC68E6E7510712D5616B41B111
:103CF00004F14403994202D0304601F0CBFF002387
:103D00006363A38923F02403A381002363602369F1
:103D10002360A38943F00803A38123694BB9A389D6
:103D200003F42073B3F5007F03D02146304601F041
:103D30003FFBA28912F001030CD00023A36063694A
:103D40005B42A361236953B9B4F90C3013F08000CE
:103D5000BAD170BD920758BF6369A360F2E7002033
:103D6000F7E700BF10000020206700084067000848
:103D7000006700082DE9F74F03690C69A3428046EC
:103D8000C0F28280013C01F114074FEA840C00F17B
:103D9000140657F8245056F8240006EB0C0301359E
:103DA00007EB0C090193B0FBF5F595B34FF0000A52
:103DB0003846B646D34650F8042B93B205FB03A30E
:103DC0004FEA134A9BB2ABEB0303120CDEF800B0D0
:103DD00005FB02A213FA8BF34FEA124A1FFA82FB89
:103DE000DEF80020CBEB124202EB23429BB243EA07
:103DF000024381454FEA224B4EF8043BDBD256F892
:103E00000C3033B9019B043B9E421A4630D3C8F8AC
:103E10001040404601F084FD002825DB0135304686
:103E20004FF0000C57F8042BD0F800E093B2ACEB45
:103E30000303120C13FA8EF3C2EB1E4202EB234271
:103E40009BB243EA0243B9454FEA224C40F8043B97
:103E5000E8D256F8242006EB84032AB9043B9E429C
:103E60001A460BD3C8F81040284603B0BDE8F08FBF
:103E70001268043B002ACAD1013CC5E71268043B22
:103E8000002AEFD1013CEAE70020EEE70000000045
:103E90002DE9F04F57EC106B97B0456A0691044638
:103EA0000B921293DDF88080CDE900673DB91020B8
:103EB00001F0BEFA6062C0E901550560C560636A41
:103EC000196851B15A684A60012393408B602046BB
:103ED00001F007FB636A00221A603B1EBBBF23F0A0
:103EE0000043019300230122ACBFC8F80030C8F89A
:103EF0000020AF4BDDF8048033EA080314D1129A96
:103F000042F20F731360009B23B9C8F3130000281B
:103F100000F04285219BDFF8ACB2002B00F0448515
:103F20000BF1030300F03EBDDDE900670022002332
:103F300030463946FCF760FF814668B1129A01238A
:103F40001360219B002B00F024859A4B219A03F1EA
:103F5000FF3B136000F028BD14AA15A947EC106BB5
:103F6000204601F0CBFDC8F30A550490002D7CD00B
:103F7000C7F3130343F07F5BB2464BF4401BA5F23B
:103F8000FF35CDF84C9000228B4B50465946FCF73C
:103F900013FB81A3D3E90023FCF7C6FC80A3D3E97C
:103FA0000023FCF70BFB064628460F46FCF752FCA5
:103FB0007DA3D3E90023FCF7B7FC02460B4630464D
:103FC0003946FCF7FBFA06460F46FCF75DFF002278
:103FD0008246002330463946FCF718FF48B1504668
:103FE000FCF738FC32463B46FCF706FF08B90AF1FD
:103FF000FF3ABAF1160F59D8704901EBCA01DDE951
:104000000023D1E90001FCF71FFF002850D00AF17E
:10401000FF3A00230F93149B5D1BB5F1010849BFC4
:10402000C5F10103002305934FF0000858BF059325
:10403000BAF1000F3EDB0023D044CDF838A007933F
:10404000069B092B00F29080052BC4BF043B06930E
:10405000069BA3F10203CCBF00250125032B00F230
:104060008F80DFE803F07D7F3171DDE914531D445B
:1040700005F23240202813DDC0F14000009B08FA11
:1040800000F805F2124023FA00F048EA0000FCF7BD
:10409000D1FB01238246A1F1F87B013D139372E726
:1040A000009BC0F1200003FA00F0F0E70123B1E724
:1040B0000F90B0E7059BA3EB0A030593CAF1000339
:1040C000079300230E93BBE701230A930B9B002B5E
:1040D00059DD02939946666A00227260042202F159
:1040E00014009842716853D9204601F0C6F9636AFA
:1040F0003060B9F10E0FD3F800B000F2E680002D69
:1041000000F0E3809DED007BBAF1000F8DED107B98
:1041100074DD2A4A0AF00F0302EBC30393ED007B20
:104120004FEA2A16F0068DED087B65D5244BDDE9B4
:104130001001D3E90823FCF721FDCDE9000106F0C9
:104140000F0603251E4F4CE001230A930B9B53449B
:1041500003F1010902934B46012BB8BF0123BAE7D3
:104160000023B2E70023F0E70125002306930A9518
:104170004FF0FF3302939946002212230B92AAE7D5
:1041800001230A93F4E70123029399461A46F5E7BF
:10419000013171605200A2E761436F63A787D23F8C
:1041A000B3C8608B288AC63FFB799F501344D33F26
:1041B0000000F07F716600080000F83F9867000873
:1041C00070670008F9660008F10708D5DDE9080105
:1041D000D7E90023FCF7A8FBCDE9080101357610EB
:1041E0000837002EF0D1DDE90823DDE90001FCF7F6
:1041F000C5FCCDE900011AE00225A3E700F0A0808C
:10420000CAF100069F4BA04F06F00F0203EBC2035A
:10421000D3E90023DDE91001FCF786FBCDE90001BD
:10422000361100230225002E7FD1002BE1D10F9BF8
:10423000002B00F08780DDE900670022934B3046B9
:104240003946FCF7E3FD00287CD0B9F1000F79D0A6
:10425000029B002B35DD0AF1FF330893394600221B
:104260008B4B3046FCF760FBCDE90001029F013526
:104270002846FCF7EFFADDE90023FCF755FB0022A6
:10428000844BFCF79BF90546A1F15076002F5DD1D8
:104290000022814BDDE90001FCF78EF92A46334606
:1042A000CDE90001FCF7D0FD002840F088822A46C5
:1042B00006F10043DDE90001FCF7A8FD002840F00D
:1042C0007C82DDE91023CDE90023159B002BC0F291
:1042D0005081BAF10E0F00F34C816A4B03EBCA0315
:1042E00093ED007B0B9B002B8DED027B80F2D88041
:1042F000B9F1000F00F3D48040F05E820022664BDB
:1043000051EC170BFCF710FBDDE90023FCF792FDE5
:104310004F464E46002840F0348231230BF1010510
:104320008BF800300AF1010A2FE2F20705D5D7E930
:104330000023FCF7F9FA013501237610083772E7FC
:10434000022574E7CDF820A04F4691E74D4B03EBD3
:10435000C70353E902010A9B002B47D002460B46D4
:1043600000204E49FCF70AFC2A463346FCF724F9A4
:10437000CDE90C015D46DDE90001FCF785FD06464F
:10438000FCF768FA02460B46DDE90001FCF714F978
:10439000303605F8016BDDE90C23CDE90001FCF7AF
:1043A00035FD002863D1DDE9002300203749FCF703
:1043B00003F9DDE90C23FCF729FD002840F0B78064
:1043C000A5EB0B039F427FF77CAF0022304BDDE96A
:1043D0000C01FCF7A9FA0022CDE90C012C4BDDE918
:1043E0000001FCF7A1FACDE90001C4E72A463346F3
:1043F000FCF79AFACDE90C010BEB07055E46DDE907
:104400000001FCF741FD0746FCF724FA303702466D
:104410000B46DDE90001FCF7CFF806F8017BAE4260
:10442000CDE900014FF0000226D11C4BDDE90C0163
:10443000FCF7C4F802460B46DDE90001FCF704FD79
:10444000002874D1DDE90C2300201449FCF7B4F8EE
:1044500002460B46DDE90001FCF7D8FC00283FF4DA
:1044600030AF15F8013C302B05F1FF3202D0DDF8FA
:1044700020A04AE01546F4E7054BFCF755FACDE9D4
:104480000001BCE798670008706700080000F03F73
:104490000000244000001C40000014400000E03FE9
:1044A000DDE900675D46DDE9022330463946FCF769
:1044B00065FBFCF7E9FC8046FCF7CCF9DDE902235B
:1044C000FCF732FA02460B463046394608F1300610
:1044D000FCF772F805F8016BA5EB0B06B145024637
:1044E0000B4639D1FCF76AF8DDE9022306460F4690
:1044F000FCF7AAFCC8B9DDE9022330463946FCF7CF
:104500007BFC10B118F0010F0FD10499204600F088
:10451000E8FF0023129A2B700AF101031360219B1C
:10452000002B00F041821D603EE2CDF820A015F87E
:10453000012C392A05F1FF3308D19B450AD1089B8C
:104540000133089330238BF800305B461A78013230
:104550001A708CE71D46EAE700229B4BFCF7E4F952
:104560000022002306460F46FCF746FC00289AD09E
:10457000CBE70A9A002A00F08B80069A012A6EDCAB
:10458000139A002A67D003F23343079F059D059ACB
:1045900001211A4420460592984401F080F806460D
:1045A000002D0CDDB8F1000F09DD4545059A2B46BD
:1045B000A8BF4346D21A0592ED1AA8EB0308079B41
:1045C000EBB10A9B002B67D08FB131463A462046AB
:1045D00001F004F9049A01460646204601F068F805
:1045E00004990890204600F07CFF089B0493079BE9
:1045F000DA1B04D00499204601F0F0F80490012160
:10460000204601F04CF80E9B0746002B00F0D081AD
:104610001A460146204601F0E1F8069B012B0746A9
:1046200040DC009B002B39D1019BC3F31303002B0B
:1046300036D1019B23F000431B0D1B052BB1059BBD
:104640000133059308F10108012307930E9B002B0A
:104650002AD1012030E0149BC3F1360395E7079B74
:1046600009F1FF37BB42BFBF079B0797FA1A0E9BA2
:10467000BBBF9B180E93DF1B0027B9F1000FB5BF1E
:10468000059B059DA3EB09054B46B8BF00237EE7BC
:10469000079F059D0A9E83E7079AABE70023D4E7AF
:1046A000009BD2E7002307933B6907EB830318695C
:1046B00000F0A7FFC0F12000404410F01F0047D0D9
:1046C000C0F12003042B3BDD059BC0F11C0003441B
:1046D000059305448044059B002B05DD1A4604998B
:1046E000204601F0C9F80490B8F1000F05DD394605
:1046F0004246204601F0C0F807460F9B53B33946A7
:10470000049801F00DF9002824DA00230A22049904
:10471000204600F0FDFE0A9B04900AF1FF3A002BB0
:1047200000F04D81002331460A22204600F0F0FEC1
:10473000029B002B06464FDC069B022B4CDD11E052
:10474000C9D0059A1C331A4405921D449844C2E707
:104750000346F6E7B9F1000F38DC069B022B35DD86
:10476000CDF80890029B63B939460522204600F037
:10477000CFFE01460746049801F0D2F800283FF723
:10478000CCAD0B9B5D466FEA030A4FF0000939463A
:10479000204600F0A6FE002E3FF4B7AEB9F1000FA0
:1047A00005D0B14503D04946204600F09AFE314677
:1047B000204600F096FEA8E600273E46E1E7DDF839
:1047C00020A03E46A9E500BF000024400A9BCDF88A
:1047D0000890002B00F0FA80002D05DD31462A46B6
:1047E000204601F049F80646079B002B4CD0716823
:1047F000204600F042FE326902320546920006F180
:104800000C010C3000F02EFE01222946204601F05A
:1048100033F8009BCDF814B003F00103B1460793C1
:10482000064639460498FFF7A5FA4946054600F1C1
:104830003008049801F074F832460090394620465A
:1048400001F088F8C368024603BB0146089004984B
:1048500001F066F8089A034611462046089300F0D6
:1048600040FE089BA3B9069A92B9079A82B9B8F19B
:10487000390F29D0009B002B01DD05F13108059B84
:104880005D1C83F8008082E73046C2E70123E3E73E
:10489000009A002A04DB25D1069A1ABB079A0ABBA4
:1048A000002BECDD01220499204600F0E5FF39469B
:1048B000049001F035F8002803DCE0D118F0010F76
:1048C000DDD0B8F1390FD8D1059B059A5D1C39238D
:1048D000137015F8013C392B05F1FF324FD001332D
:1048E000137054E7059A002B02F1010506DDB8F1BB
:1048F000390FE9D008F10108059BC2E7029A05F8D3
:10490000018CA5EB0B03934221D000230A220499CA
:10491000204600F0FDFDB14504904FF000034FF03C
:104920000A024946204605D100F0F2FD81460646BE
:10493000059576E700F0ECFD3146814600230A221A
:10494000204600F0E5FD0646F2E74FF0000901229F
:104950000499204600F090FF3946049000F0E0FFF3
:104960000028B6DC02D118F0010FB2D115F8013CD5
:10497000302B05F1FF327FF40AAF1546F6E7934579
:1049800005D131230AF1010A8BF80030FFE6154604
:104990009FE7DFF864B007E0219BDFF860B01BB150
:1049A0000BF10803219A1360584617B0BDE8F08F49
:1049B000069B012B7FF735AE0E9B079349E6029BC2
:1049C000002B03DC069B022B3FF7CCAE5D4639463D
:1049D0000498FFF7CFF900F1300805F8018B029A2F
:1049E000A5EB0B039A42B0DD00230A22049920466E
:1049F00000F08EFD0490EAE770660008F06600089B
:104A00008A892DE9F041054610070C4658D44B68B9
:104A1000002B05DC0B6C002B02DC0020BDE8F081D4
:104A2000E66A002EF9D0002312F480522F68216A22
:104A30002B6032D0606DA3895A0705D56368C01A10
:104A4000636B0BB1236CC01A00230246E66A216A2D
:104A50002846B047431CA38906D129681D2948D898
:104A6000294ACA40D60744D500226260D904226987
:104A7000226004D5421C01D12B6803B96065616BCB
:104A80002F600029C9D004F14403994202D028467E
:104A900001F000F900206063C0E701232846B04719
:104AA000411CC8D12B68002BC5D01D2B01D0162B63
:104AB00001D12F60B1E7A38943F04003A381ADE7A3
:104AC0000F69002FA9D093070E6808BF4B690F60CC
:104AD00018BF0023A6EB07088B60B8F1000F9CDD20
:104AE00043463A46216AA66A2846B047002806DCB3
:104AF000A38943F04003A3814FF0FF308EE70744C2
:104B0000A8EB0008E9E700BF0100402038B50B69B9
:104B100005460C46DBB118B183690BB900F060F8AB
:104B20000C4B9C4209D16C68B4F90C307BB1214626
:104B30002846BDE83840FFF763BF074B9C4201D1D0
:104B4000AC68F1E7054B9C4208BFEC68ECE700203D
:104B500038BD00BF206700084067000800670008F4
:104B6000002310B50446C0E90033836081814366A9
:104B7000C281C0E904338361194608225C30FDF725
:104B8000A1FA054B6362054BA362054BE362054B3B
:104B90002462236310BD00BF216300084363000843
:104BA0007B6300089F630008014900F085B800BFDF
:104BB0000D4B000870B54A1E682555430E4605F199
:104BC000740101F0B5F8044640B10021C0E90016B7
:104BD0000C30A06005F16802FDF774FA204670BD44
:104BE000836910B5044633BBC0E912330365124B29
:104BF000124A1B688262984204BF0123836100F05D
:104C00001FF86060204600F01BF8A060204600F00E
:104C100017F80022E06004216068FFF7A1FF01227D
:104C20000921A068FFF79CFF02221221E068FFF72C
:104C300097FF0123A36110BD5C660008A94B000823
:104C4000F8B51B4B1E68B369074613B93046FFF72A
:104C5000C7FF4836D6E90134013B03D5336833B189
:104C60003668F7E7B4F90C506DB16834F4E7042105
:104C70003846FFF79FFF30600028F1D10C233B60DE
:104C800004462046F8BD0B4B6566C4E90055A56097
:104C9000C4E90335C4E905550822294604F15C003E
:104CA000FDF710FAC4E90D55C4E91255E9E700BF54
:104CB0005C6600080100FFFF2DE9F8438046894645
:104CC00000F14804002614B93046BDE8F883D4E961
:104CD0000175013F01D52468F5E7AB89012B07D9A0
:104CE000B5F90E30013303D029464046C847064384
:104CF0006835EEE7F0B506694B119E4200F11404E9
:104D000030DD11F01F0104EB860604EB830208D1AD
:104D10002146B2420B4611D252F8043B41F8043B03
:104D2000F7E754F82350C1F1200CCD40043223465C
:104D3000B24217460CD31D6005B104331A1BA342BF
:104D40004FEAA20208BF0023026108BF4361F0BD21
:104D50003F6807FA0CF73D4343F8045B52F8045BE5
:104D6000CD40E5E72346E9E7A0F13003092B02D85F
:104D70002038C0B27047A0F16103052B01D8473835
:104D8000F7E7A0F14103052B01D82738F1E7002010
:104D900070472DE9F04F8BB08A4602901698069323
:104DA000904600F0D0FA036803931846FBF7A2FB85
:104DB000039B019003444FF0000B13F8013C079351
:104DC000DAF8003002331F4613F8010B30286CD09C
:104DD000FFF7CAFF044600286AD1019A03993846B2
:104DE00001F0E1FA002866D1019BF85CFE18FFF79C
:104DF000BBFF002862D03346187830281F4603F1E5
:104E00000103F9D0FFF7B0FFB0FA80F56D09344621
:104E10004FF0010B3A46164601323078FFF7A4FFF7
:104E20000028F8D1019A0399304601F0BCFA50B934
:104E300054B9019BF4182246164601323078FFF728
:104E400093FF0028F8D10CB1A41BA4003378502B99
:104E500001D0702B40D173782B2B31D02D2B33D038
:104E6000711C4FF000090878FFF77EFF431EDBB28C
:104E7000182B31D8A0F1100211F8010FFFF774FFC1
:104E8000431EDBB2182B22D9B9F1000F00D05242D9
:104E90001444CAF800100DB3BBF1000F0CBF062775
:104EA000002738460BB0BDE8F08F0BF1010B8AE705
:104EB00000252C46AEE73E460125C7E70446FBE742
:104EC0004FF00009B11CCEE74FF00109FAE70A23C1
:104ED00003FB0202103ACFE73146DAE7F31B013B4E
:104EE0002946072B49DC029800F0C7FA019B00F124
:104EF00014094FF0000BC3F101030546CDF81090E3
:104F0000DA460893B7423BD3049840F804ABA0EBD1
:104F10000900801028614701504600F072FBD8F864
:104F200000603F1AB74264DDBF1B3946284600F0D7
:104F300081FE824678B17B1E591103F01F024FF0AB
:104F4000010A59F821100AFA02F20A4203D0534525
:104F500046DC4FF0020A39462846FFF7CBFE3C44B8
:104F6000D8F80830A34252DA2946029800F0B9FA7C
:104F7000149A00231360A32793E701315B10B0E775
:104F8000731E0593079A16F8013C934218D0BBF1A3
:104F9000200F07D1049BC3F800A004334FF0000A90
:104FA0000493D34616F8010CFFF7DEFE00F00F0065
:104FB00000FA0BF04AEA000A0BF1040B059B0DE026
:104FC000059B089A1344BB42E1D31846019A039902
:104FD000099301F0E8F9099B0028D8D11E4691E712
:104FE000B91E284600F026FE0028B2D04FF0030A72
:104FF000B1E709DAF71B29463A46029800F03CFC73
:10500000E41B054600F114094FF0000AA8E7D8F8A0
:105010000400A0426ADD041BA6422EDCD8F80C3046
:10502000022B22D0032B24D0012B15D1A64213D161
:10503000012E0BDC069AD8F80430136001232B6193
:10504000C9F80030149B62271D602AE7711E2846AC
:1050500000F0F0FD0028EDD12946029800F041FA59
:10506000149A0023136050271BE7159B002BE1D0F7
:10507000F2E7159B002BDDD1EEE7671EBAF1000FBA
:1050800031D127B13946284600F0D4FD82467A1145
:10509000012307F01F0703FA07F759F822302146CA
:1050A0001F42284618BF4AF0020A361BFFF722FEAD
:1050B000D8F804400227BAF1000F48D0D8F80C30D5
:1050C000022B15D0032B17D0012B09D11AF0020F98
:1050D00006D0D9F800304AEA030A1AF0010F0ED1BF
:1050E00047F0100733E04FF0010AD0E70127E2E76D
:1050F000159BC3F101031593159B002BF0D0D5F838
:10510000109005F114034FEA890A03EB0A014FF0EE
:10511000000C184653F8042BB2F1FF3F1CD00132AB
:105120000260022F05F1140338D1D8F80020013AAB
:10513000B2420AD17111012206F01F0653F8213044
:1051400002FA06F61E4218BF174647F02007149BC6
:105150001D60069B1C60A4E6994243F804CCD8D895
:10516000AB68994512DB69680298013100F085F956
:105170002A69023205F10C01834692000C3000F0DE
:1051800071F92946029800F0ACF95D462B695A1C6A
:1051900005EB83032A6101225A61C2E72A694A4565
:1051A0000BDD01212846FFF7A5FDD8F808300134B2
:1051B000A342FFF6D9AE0127C7E716F01F06FAD0C3
:1051C0009A44C6F120065AF8040C00F01AFAB042CC
:1051D000E7DBF0E7C2F10802920070B5C2F12006E9
:1051E0004368046803FA06F52C43D340046040F892
:1051F000043F8842F4D370BD30B50368013311F821
:10520000014B14B90360012030BD13F8012BA2F14A
:105210004105192D98BF2032A242F0D00020F3E7BB
:105220002DE9F04F0B6801685F1102EB870713F05F
:105230001F0387B018BF043700253E1F82469046E3
:10524000019347F8045CB14634460295AB464A7870
:105250004B1C039342B3104605910492FFF784FD63
:10526000002843D1049A0599202A18D8029B9B450F
:1052700013DD4C4506D2072D04DC2A46494620465C
:10528000FFF7A8FF444544D90023A4F1040944F8DA
:10529000043CCDF808B04C461D460399D7E7292AAF
:1052A0004AD10231CAF80010BBF1000F44D04C457E
:1052B00006D2072D04DC2A4649462046FFF78AFF1E
:1052C000444528D9434654F8042B43F8042BA642FE
:1052D000F9D2002243F8042B9E42FBD233681BB95B
:1052E000464527D101233360052026E00135082DEE
:1052F0000BF1010B06DD4445CFD9002344F8043CF3
:105300000125043C226800F00F0040EA02102060F2
:10531000C3E70825C1E7019B002BDFD04FF0FF3228
:10532000C3F1200322FA03F357F8042C1A4047F87C
:10533000042CD3E7043ED1E7042007B0BDE8F08F8A
:10534000D0F8EC007047F03070470000044B1B6849
:10535000186A044B002808BF1846F030704700BF99
:10536000100000207400002070B50E46B1F90E1038
:10537000002996B014461D4607DA00232B60B38936
:105380001A0610D44FF480630EE06A4601F04CF820
:105390000028F2DB019A02F47042A2F500535A424F
:1053A0005A412A60EEE740230020236016B070BD0A
:1053B0008B8973B59D0706460C4607D504F1470354
:1053C000236023610123636102B070BD01AB6A46B3
:1053D000FFF7CAFF00990546304600F0A9FC48B91E
:1053E000B4F90C309A05EFD423F0030343F0020321
:1053F000A381E3E70D4BB362A389206043F08003F0
:10540000A381009B6361019B20615BB1B4F90E1025
:10541000304601F01BF828B1A38923F0030343F0C1
:105420000103A381A3891D43A581CDE7A94B0008F2
:10543000024B0146186800F07BBC00BF1000002042
:1054400082B001B901A942B14BB113780B60127857
:10545000101C18BF012002B070471046FBE76FF028
:105460000100F8E710B5431E0A44914200D110BD77
:1054700011F8014B03F8014FF7E770B5456A044690
:105480000E463DB91020FFF7D3FF6062C0E9015519
:105490000560C560656AEB6883B1636ADB6853F8D1
:1054A0002600B8B9012101FA06F56A1D92002046CE
:1054B00000F0E1FB60B1C0E901650EE021220421AA
:1054C000204600F0D8FB636AE860DB68002BE4D17B
:1054D000002070BD026843F826200023C0E9033392
:1054E000F7E770B5446A06460D463CB91020FFF751
:1054F0009FFF7062C0E901440460C4603DB1736AFB
:105500006A68DB6853F82210296043F8225070BDA6
:105510002DE9F0410D691F4606460C4601F1140CB9
:105520000023DCF8000081B202FB01710F0C000CBB
:1055300002FB007089B2013301EB00419D424FEA4A
:1055400010474CF8041BECDCD7B1A368AB4212DC6B
:10555000616830460131FFF790FF2269023204F1A1
:105560000C01804692000C30FFF77CFF214630464C
:10557000FFF7B7FF444604EB850301355F61256102
:105580002046BDE8F0812DE9F8430C4615461F463C
:1055900009220833064693FBF2F3002101229A42C6
:1055A00020DB3046FFF769FF089B4361092D4FF070
:1055B0000103036119DD04F10908C1462C4419F8FF
:1055C000013B0146303B0A223046FFF7A1FFA145CF
:1055D000F5D108EB0504083C2D1B6319BB4207DB22
:1055E000BDE8F88352000131D9E70A340925F3E711
:1055F00014F8013B0146303B0A223046FFF788FF92
:10560000EBE7020C12040346B2B90304102013F0B6
:105610007F4F04BF1B02083013F0704F04BF1B0103
:10562000043013F0404F04BF9B000230002B06DB18
:105630005B0003D5013070470020E8E72020704769
:10564000036813F0070201460BD0DA0723D498074A
:1056500049BF5B089B0801200B605CBF0B60022008
:10566000704798B2A8B91B0C102013F0FF0F04BFAD
:105670001B0A08301A0704BF1B0904309A0704BF2D
:105680009B080230DA0702D45B0806D001300B60B9
:1056900070471046E9E7002070472020704710B59A
:1056A0000C460121FFF7E9FE01224461026110BDB1
:1056B0002DE9F74F14460A6923699A42B8BF0B4691
:1056C0008846BCBFA0461C46D8F81070D4F810908D
:1056D000D8F80830D8F8041007EB0906B342B8BF71
:1056E0000131FFF7CAFE00F1140505EB860E2B46CB
:1056F0000022734516D304F1140208F1140102EBE1
:10570000890301EB87070093009B019293420CD819
:10571000002E03DD5EF8043D002B5DD0066103B072
:10572000BDE8F08F43F8042BE3E7B2F800B0BBF11B
:10573000000F23D08946AC464FF0000859F8044BBF
:10574000DCF800A0A3B21FFA8AFA0BFB03A34FEA0E
:10575000144ADCF8004043444FEA14480BFB0A8427
:1057600004EB1344E2469BB243EA04434F454FEA3D
:1057700014484AF8043B2BD8CCF80480019BB3F8BA
:1057800002A00432BAF1000F20D02B688946A84647
:105790004FF0000BB9F800C0B8F802400AFB0C4407
:1057A0005C44C4469BB243EA04434CF8043B59F8BA
:1057B000043BB8F804B01B0C0AFB03B303EB14431F
:1057C0004F454FEA134B05D8C8F8043004359BE722
:1057D000D446B3E7E046DDE7013E99E72DE9F8431B
:1057E000154612F0030206460F4607D0013A214C37
:1057F000002354F82220FFF78BFE0746AD1035D06A
:10580000746A3CB91020FFF713FE7062C0E90144CE
:105810000460C460D6F82480D8F808404CB940F23F
:1058200071213046FFF73BFF0023C8F8080004460B
:1058300003604FF00008EB070AD539462246304690
:10584000FFF736FF394681463046FFF74AFE4F469E
:105850006D100BD0206838B9224621463046FFF73C
:1058600027FF2060C0F800800446E4E73846BDE822
:10587000F88300BF606800082DE9F0470C464FEA46
:10588000621A236949680AEB0309A36807461646AA
:1058900009F10105AB4232DB3846FFF7EEFD00238C
:1058A000804600F114011A4653452BDB20692AEA91
:1058B000EA7A04F1140316F01F0201EB8A0103EBEC
:1058C000800C25D0C2F1200E00201E688A4696402A
:1058D00030434AF8040B53F8040B9C4520FA0EF0B1
:1058E00014D8486008B109F10205013D3846C8F8EE
:1058F00010502146FFF7F5FD4046BDE8F087013125
:105900005B00C7E741F823200133CDE75146DCE7D0
:10591000043953F8042B41F8042F9C45F9D8E4E7E7
:1059200003690A699B1A30B50CD192001430143106
:105930008418114454F8045D51F8042D954203D0A5
:1059400005D30123184630BDA042F3D3FAE74FF048
:10595000FF33F7E72DE9F0470D4607461146284685
:105960001446FFF7DDFF061E08D131463846FFF723
:1059700084FD0123C0E90436BDE8F087A4BF2346B7
:105980002C4638466168A6BF1D4600260126FFF753
:1059900074FD2B69C660266905F1140904F114022F
:1059A00002EB860709EB830800F114054FF0000EA7
:1059B00052F804AB59F8044B1EFA8AF1A3B2C91A83
:1059C000230CC3EB1A4303EB214389B24FEA234E66
:1059D000C84541EA0343944645F8043BE8D8BC4532
:1059E00004D355F8043D83B10661C5E75CF8041B98
:1059F0001EFA81F31A1402EB11429BB243EA0243EE
:105A00004FEA224E45F8043BE9E7013EE9E7000092
:105A1000124B10EE902A1A40A2F15073002B04DDB5
:105A20000020194641EC100B70475B421B15132BED
:105A30004FF000004FF0000104DC4FF4002242FA66
:105A400003F1EFE7143B1E2B4FF00102DABFC3F165
:105A50001F0302FA03F313461846E3E70000F07F42
:105A6000F8B5056900F1140707EB85052E1F55F8F9
:105A7000044C2046FFF7C5FDC0F120030A280B6047
:105A8000DFF874C014DCC0F10B0E24FA0EF1B7423B
:105A900041EA0C0334BF55F8081C0021153004FA04
:105AA00000F021FA0EF140EA010243EC102BF8BDA0
:105AB000B7423ABFA5F1080655F8081C00210B387B
:105AC00015D08440C0F1200544F07F5444F44014C4
:105AD000BE4221FA05FC44EA0C038CBF56F8044C84
